:100000006805002065150000F52C0000F9130000BC
:10001000F9130000F9130000F9130000F9130000B0
:10002000F9130000F9130000F9130000510F00004C
:10003000F9130000F9130000F90E00008B2C0000EA
:1000400025150000251500002515000025150000C8
:1000500025150000251500002515000025150000B8
:1000600025150000251500002515000025150000A8
:100070002515000025150000251500002515000098
:100080002515000025150000251500002515000088
:100090002515000025150000251500002515000078
:1000A0002515000025150000251500002515000068
:1000B0002515000025150000251500002515000058
:1000C0002515000025150000251500002515000048
:1000D0002515000025150000251500002515000038
:1000E0002515000025150000251500002515000028
:1000F0002515000025150000251500002515000018
:100100002515000025150000251500002515000007
:1001100025150000251500002515000025150000F7
:1001200025150000251500002515000025150000E7
:1001300025150000251500002515000025150000D7
:10014000251500007BB972B90029BEBF00204FF011
:10015000004106E008BF00281CBF6FF000414FF0CF
:10016000FF3000F0AFB9ADF1080C6DE904CE002905
:1001700009DB002B1ADB00F035F8DDF804E0DDE9DF
:10018000022304B07047404261EB4101002B1BDBAE
:1001900000F028F8DDF804E0DDE9022304B0404275
:1001A00061EB4101524263EB43037047524263EB00
:1001B000430300F017F8DDF804E0DDE9022304B0A2
:1001C000404261EB41017047524263EB430300F050
:1001D00009F8DDF804E0DDE9022304B0524263EBE4
:1001E000430370472DE9F0478C46089D04468A4634
:1001F000002B4AD18A42174662D9B2FA82F64EB132
:10020000C6F1200E01FA06F3B740B44020FA0EFE04
:100210004EEA030A4FEA1748230C1FFA87F9BAFB84
:10022000F8FE08FB1EAA0EFB09F243EA0A439A42B3
:100230000BD9FB180EF1FF312CBF012000209A4290
:1002400002D9002800F02A818E469A1AA3B2B2FB86
:10025000F8F008FB102200FB09F943EA0244A1452B
:1002600007D93C1900F1FF3302D2A14500F21081F9
:100270001846A4EB090440EA0E4000211DB1F440E9
:100280000023C5E90043BDE8F0878B4208D9002D63
:1002900000F0F2800021C5E9000C0846BDE8F087B7
:1002A000B3FA83F100294ED16345C0F0E880824261
:1002B00040F2E5800846002DE5D0C5E9004AE2E7B6
:1002C00002B9FFDEB2FA82F6002E40F099808B1A56
:1002D0004FEA124E1FFA82F801214FEA144CB3FB89
:1002E000FEF20EFB123008FB02F94CEA004CE1452D
:1002F00008D917EB0C0C02F1FF3302D2E14500F2F2
:10030000CA801A46ACEB090CA3B2BCFBFEF00EFB94
:1003100010CC08FB00F843EA0C44A0450ED93C1968
:1003200000F1FF332CBF4FF0010C4FF0000CA04543
:1003300003D9BCF1000F00F0A8801846A4EB080414
:1003400040EA02409AE7C1F120048B4002FA01FE24
:100350000CFA01F6E24020FA04F72CFA04FC00FA49
:1003600001F813433E431F0C320C1FFA83F9BCFB08
:10037000F7F007FB10CC00FB09FA42EA0C4CE2450F
:1003800008D913EB0C0C00F1FF3202D2E24500F267
:1003900089801046ACEB0A0CB6B2BCFBF7FA07FB3F
:1003A0001ACC0AFB09F946EA0C42914506D99A187B
:1003B0000AF1FF3601D291457AD8B2464AEA0040A6
:1003C000A2EB0902A0FB0E67BA42B446B94602D3BB
:1003D00007D1B04505D2B6EB0E0C67EB030301382D
:1003E0009946002D6BD0B8EB0C0362EB090202FAC0
:1003F00004F4CB40CA4000211C43C5E9004242E757
:10040000B740C6F1200201FA06F3B44021FA02FC1B
:100410004FEA174E20FA02F21FFA87F8BCFBFEF1F2
:100420001A430EFB11CC01FB08F0130C43EA0C4CF1
:10043000604507D917EB0C0C01F1FF3301D2604581
:1004400033D81946ACEB000C92B2BCFBFEF00EFBAD
:1004500010CC00FB08F342EA0C4C634507D917EBBC
:100460000C0C00F1FF3201D2634525D81046ACEBED
:10047000030340EA014130E72946284603E7841A8E
:100480006CEB030301209A4615E702383C4455E71C
:1004900002383C44EDE6023ABC4433E7AEF1020ECA
:1004A0003B44D2E602389C4474E70239BC44C9E7B5
:1004B000AAF1020A1A4481E70238BC44D7E7294668
:1004C000E1E600BF704700BF2DE9E04F2746A04698
:1004D000A146A246A346A446A2B02DEC000A84F38E
:1004E000008825462646A4473DEC000A22B0BDE818
:1004F000E08F000082680C4B9A60036883F3888861
:10050000436883F38988027B02F00101EFF394834F
:1005100023F00303920748BF43F0020309B143F0FD
:10052000010383F39488704700ED02E0084AD36822
:1005300048B123F400531B041B0C43F0BF6343F486
:100540000033D36070479BB243F40053F5E700BF1C
:1005500000ED00E0084AD36840B19BB243F4804309
:1005600043F0BF6343F40033D360704723F4804308
:100570001B041B0CF4E700BF00ED00E0084AD36841
:1005800040B19BB243F0080343F0BF6343F4003330
:10059000D360704723F008031B041B0CF4E700BF73
:1005A00000ED00E0034AD2F88C3043F44063C2F817
:1005B0008C30704700ED00E0084B1A6818B142F02B
:1005C00001021A60704722F001021A601A6811B124
:1005D00042F00202F5E722F00202F2E7D0ED00E07D
:1005E0000B6801330B60014B1B681847A80E0020F5
:1005F0002DE9F04F85B00E9C9B46012CB8BF01241D
:10060000012B0CBF30232023154680468946012646
:100610000A270022DFF870A0019402930AF1010476
:100620000AB9AA451ED2B5FBF4F049463030C0479E
:1006300001220136B5FBF4F10A23013F012F04FB2F
:100640001155BAFBF3FAE9D1494605F13000C0472C
:10065000BBF1030F03D1019B9C1B002C0FDC05B0E9
:10066000BDE8F08F019BBB42E4DBBBF1020FE1D898
:100670004946029803920136C047039ADAE7494691
:100680002020C047013CE8E7FFC99A3B014B1860B6
:10069000704700BFA80E0020002313B502AC44F839
:1006A000043D02460B460348214602F042F902B0DF
:1006B00010BD00BFE105000010B54FF02003EFF3BF
:1006C000118483F31188BFF36F8F00F013F80122B8
:1006D000064BC3F840254FF0FF32054B9A62DA62B1
:1006E00084F31188BFF36F8F002010BD009003507A
:1006F00000ED00E04D4A136843F00203136000224E
:10070000D30003F57F03D3F80013013108D0D3F8E9
:1007100000130132D3F80433B2F5807F0B60EFD1C0
:10072000434AD36913F001033BD0424B1946D3F837
:100730000024012AFBD1C3F80425D1F80034012B91
:10074000FBD13B4BDA69D20708D5DA69394922F087
:100750000102DA61D1F80024012AFBD11A6A0132C0
:100760000AD11A6A22F0FF0242F020021A62314ACC
:10077000D2F80034012BFBD100222E4BC3F8042504
:10078000D3F80024012AFBD1BFF34F8F2A492B4B0A
:10079000CA6802F4E0621343CB60BFF34F8F00BF1F
:1007A000FDE7126A0132C0D0254A116809290AD131
:1007B00024490968013901299EBF4FF05021C1F831
:1007C0001431C1F818311368092B09D11D4B1B686E
:1007D000012B01BF1C4A1360A2F63822C2F87835FB
:1007E000174B1A68092A0BD1164A1268022A07D138
:1007F0000021154A11600121A2F63822C2F87815AD
:100800001B68092B06D10F4B1B68022B02BF0C2261
:100810000E4B1A60084AD2F88C3043F44063C2F899
:100820008C300B4B0B4A1A60704700BFD0ED00E0D4
:100830000080FF000090035000ED00E00400FA0586
:100840003001FF003401FF00384A0050E4AE03508D
:10085000AC0E00200090D0030A2838B50446074D9E
:1008600004D128680D2143685B6898472868E1B285
:1008700043685B689847204638BD00BF08000020E9
:1008800010B5044C204601F06FF82046BDE810403A
:10089000FFF7FCBE5908000008B5044801F054FBFE
:1008A000034B1860FFF7ECFF002008BD2336000063
:1008B0000800002010B54FF02003EFF3118283F3FE
:1008C0001188BFF36F8F154C237833B982F31188E9
:1008D000BFF36F8F6FF0440010BD013BDBB223709C
:1008E00033B182F31188BFF36F8F6FF00F00F3E71E
:1008F0000B4B0121187838B1217082F31188BFF3B6
:100900006F8F6FF00A00E7E7197082F31188BFF369
:100910006F8F044A11601870DEE700BF5E0100208F
:100920005D0100200450005010B54FF02002EFF39D
:10093000118382F31188BFF36F8F144C207898B124
:1009400083F31188BFF36F8F4FF05022D2F81C341D
:10095000D2F8182403F0030343F48033934314BF05
:100960006FF04300002010BD0122227083F3118834
:10097000BFF36F8F4FF05023C3F80401C3F818156D
:100980000221C3F804139A60DEE700BF5C01002077
:10099000F8B54FF02002EFF3118382F31188BFF313
:1009A0006F8F294A1078441C147080B183F311882A
:1009B000BFF36F8F4FF05023D3F80C3403F00113C3
:1009C000B3F1011F0CBF00206FF0430009E01F4D81
:1009D0002F783FB1107083F31188BFF36F8F6FF0E2
:1009E0000A00F8BD01262E7083F31188BFF36F8FC4
:1009F0004FF0502421B3052000F09CFCC4F8007196
:100A0000D4F80433C4F804632660D4F800219AB102
:100A10000022DB0758BF0123C4F800214FF0200259
:100A200058BFC4F808330A4B0520C3F8802100F0F2
:100A300071FC00232B70BDE720BF40BF20BFE4E75F
:100A4000C4F800112660F4E75E0100205D0100207B
:100A500000E100E00022104B10B4C3F840214FF039
:100A60002002EFF3118482F31188BFF36F8FD3F864
:100A7000040540F24713094A1168401A20F07F40EC
:100A8000B0FBF3F003FB0013136084F31188BFF392
:100A90006F8F10BC01F04ABE005001500C000020C6
:100AA00038B51B4801F050FA70B3436802211B6847
:100AB0009847002440F24713164D4FF40012C5F832
:100AC0000845C5F840354FF48033C5F84433C5F8C0
:100AD0000433114B01211C60104B1520C3F88021F9
:100AE000224600F03BFC152000F014FC01232046B8
:100AF0000B4A13602B60D5F8043503F2471323F03B
:100B00007F43C5F8403538BD4FF0FF30FBE700BFED
:100B10002A360000005001504051015000E100E031
:100B2000085001504CF6690270B5B0F1FF3F08BFA4
:100B300010464FF02003EFF3118483F31188BFF3C5
:100B40006F8F01389042124DA8BF10462E6840F2B8
:100B50004715104920EAE070D1F804359A1B22F0BD
:100B60007F4202F5A37205FB0020B0FBF5F005FB08
:100B70000060C31A23F07F431F2B98BF401920F059
:100B80007F40C1F8400584F31188BFF36F8F70BDBB
:100B90000C000020005001504FF02002EFF31183B1
:100BA00082F31188BFF36F8F084AD2F80405084A10
:100BB0001268801A40F2471220F07F40B0FBF2F03A
:100BC00083F31188BFF36F8F704700BF005001504F
:100BD0000C00002008B543B2002B0CDB012200F012
:100BE0001F018A405B091049203341F82320BFF3DD
:100BF0004F8FBFF36F8F830003F1A04303F5405382
:100C00003128D3F8002806D0002A07DA02F00302C0
:100C1000023A012A02D8054AC3F80028002102F04E
:100C200038F8002008BD00BF00E100E000010080AE
:100C300030B54FF4004448F2040585B04FF400414C
:100C40001C4801F0D2FF21681B4801F0CEFF296843
:100C50001A4801F0CAFF10220021684602F093F8FA
:100C60002368684600930294FFF744FC0120FFF7D5
:100C700071FC0020FFF75AFC0020FFF77FFC0121E8
:100C80000020FFF799FCFFF78DFC2C680C4801F061
:100C9000ACFF0820FFF79EFF24F00104BFF34F8F45
:100CA000BFF36F8F64086400204621462246234626
:100CB000FFF70AFC153700002C3700004137000011
:100CC0005F3700002DE9F8435D4801F08EFF0021F9
:100CD000DFF8AC815B4F5C4D58F82140CA0301F549
:100CE000C07347F82340594802F500434E1C01F0F9
:100CF0007CFF574B14F0100F5649574808BF194650
:100D000001F073FF14F0040F14BF72212D21284647
:100D100001F06BFF14F0020F14BF77212D2128463C
:100D200001F063FF14F0010F14BF78212D21284634
:100D300001F05BFF14F4807F14BF6C212D21284645
:100D400001F053FF454801F050FF202E3146C3D13A
:100D5000424801F04AFF424801F047FF0021DFF816
:100D60002481384F384D58F821404A0301F5E0738B
:100D700047F823403B4802F500534E1C01F035FF75
:100D8000334B14F0100F3349334808BF194601F0B4
:100D90002CFF14F0040F14BF72212D21284601F0FE
:100DA00024FF14F0020F14BF77212D21284601F0F3
:100DB0001CFF14F0010F14BF78212D21284601F0EB
:100DC00014FF14F4807F14BF6C212D21284601F0FC
:100DD0000CFF224801F009FF202E3146C3D1002428
:100DE0001E4801F002FF204801F0FFFE154B1F4D89
:100DF000DFF89480DFF89490C3F8C04405EBC40694
:100E0000777955F83420002F14BF43464B462146CE
:100E1000174801F0EAFE57B91648013401F0E5FE23
:100E2000122CEBD10D48BDE8F84301F0DEBE30795D
:100E3000FFF7D0FE08B11048EFE71048EDE700BF1C
:100E40006836000000300050A03600008B360000ED
:100E50005136000048360000FE360000F63A000029
:100E6000A3360000C5360000D9360000A8340000C3
:100E7000F536000001370000083700001037000089
:100E800028340000383500005D360000553600007B
:100E900004488168406A884203D003494FF0805279
:100EA0000A6070471C01002004ED00E000232021AF
:100EB0000348C2180133412B82F80013F9D170475F
:100EC00000E100E0094A0A49936809685866996692
:100ED00008494B6843F080534B60002383F311882B
:100EE000BFF36F8F9368986E704700BF1C0100209E
:100EF0000C36000000ED00E0202080F31188BFF3E5
:100F00006F8F11498A684FF028001044EFF3098C65
:100F100080E8F01F0D4F4FF000664A6A8A603E601D
:100F2000506E0023536680F3118804B5064880682C
:100F300001F0E7FEBDE8044002F1280090E8F01F50
:100F40008CF30988704700001C01002004ED00E0CC
:100F50001EF0040F0CBFEFF30880EFF309808169E6
:100F600031F8021C11F0FF010229FFD001B501F098
:100F7000B9FE01BD38B51B4C05461B4801F035FED6
:100F8000A36AD90602D5194801F02FFEA36A1A07F1
:100F900002D5174801F029FEA36A9B070ED5154814
:100FA00001F023FE616BA36A180607D5124801F011
:100FB0001CFE1DB1A36A23F08003A362094CA36A3F
:100FC000DA0702D50D4801F010FEA36A9B0602D590
:100FD0000B4801F00AFEA36AA36A002043F0FF0356
:100FE000A36238BD00ED00E0C6380000DD38000027
:100FF00011390000253900003E3900005539000044
:101000007539000038B51E4C05461E4801F0EDFD4F
:10101000A36AD90402D51C4801F0E7FDA36A1A05AA
:1010200002D51A4801F0E1FDA36A9B050ED51848C8
:1010300001F0DBFDA16BA36A180407D5154801F088
:10104000D4FD1DB1A36A23F40043A3620C4CA36A30
:10105000590502D5104801F0C8FDA36ADA0509D583
:101060000E4801F0C2FD064A0020936A43F47F4314
:10107000936238BDA36A9B04F5D50948F1E700BF28
:1010800000ED00E0383800004F3800001139000052
:10109000613800007B38000091380000AD38000056
:1010A0007539000010B51C4C1C4801F09EFDA36A68
:1010B0009A0102D51A4801F098FDA36ADB0102D516
:1010C000184801F092FDA36ADC0202D5164801F02F
:1010D0008CFD114CA36A180302D5144801F085FD5C
:1010E000A36A590302D5124801F07FFDA36A9A034F
:1010F00002D5104801F079FD074CA36ADB0302D545
:101100000D4801F072FDA36A00206FEA03436FEA05
:101110001343A36210BD00BF00ED00E0853A00005C
:101120009E3A0000B23A0000CD3A0000F83A0000C2
:10113000173B00003D3B0000583B000010B51A4C27
:101140001A4801F052FDA1696369580602D5184892
:1011500001F04BFD6369D90707D5164801F045FD3D
:10116000636943F0FF03636110BD63699A0701D5AA
:101170001148F3E763695B0701D51048EEE763693F
:10118000180701D50E48E9E76369D90601D50D486E
:10119000E4E763699A0601D50B48DFE763691B063C
:1011A000DED50A48DAE700BFD0ED00E0A53900003F
:1011B000BF390000D0390000E7390000063A0000CE
:1011C000223A0000403A0000563A0000713A00000E
:1011D0003D4B70B55E6801F07F43B3F17F4F05462C
:1011E0000C465DD111F0010041D048061BD429689E
:1011F000364B37480B44012B98BF296C01F0F5FCA6
:1012000014F00804304B09D0EFF389855C6814F4BE
:10121000006408D12F4801F0E8FC41E0EFF3888535
:101220005B681905F6D4C6F30806F21E092A3FD8F2
:10123000DFE802F005383A2D343E3E3E3E3C26487B
:1012400001F0D3FC204BDA6A920701D52348E2E78C
:10125000D86A10F080400AD0214801F0C6FC214B2A
:101260001B784BB10120FFF785FE06282BD02946BD
:10127000BDE8704000F0D2B81B4B1B781BB10120B9
:10128000FFF7C0FEF1E7194B188884B214B1FFF7DD
:1012900009FFEAE7164B58690028E8D0FFF74EFF30
:1012A0000020E4E70020DEE70020E9E71148B2E78C
:1012B00011481249A6F110020F2ED8BF014610485E
:1012C00001F093FCECE770BD00ED00E0A6ED050138
:1012D000B23B0000D23B0000F73B00000F3C000097
:1012E000313C000028ED00E029ED00E02AED00E0AF
:1012F000D0ED00E0513C0000843B0000993B000031
:10130000883C0000024A536943F010035361704760
:1013100000ED00E043B2002B08DB012200F01F00CB
:1013200002FA00F0024A5B0942F82300704700BF4E
:1013300000E100E043B2002B0DDB012200F01F00B2
:1013400002FA00F05B09044A203342F82300BFF39D
:101350004F8FBFF36F8F704700E100E043B2002B67
:1013600001F10101A8BF03F160434FEA4111B8BF89
:10137000054BC9B2ABBF03F5614300F00F0083F822
:1013800000131954704700BF14ED00E02DE9F0413F
:101390008C18884617461E4604220A9B0999054662
:1013A00001F09AFE00220D49A4F1200323F0070367
:1013B00021F00101C5E91322C5E916879961069953
:1013C0001E605960079999600899D9604FF0807143
:1013D000D961AB646A66BDE8F08100BFFF280000F8
:1013E000014910220A60704710ED00E0404080F390
:1013F000118830BF704700BF404080F311884FF024
:1014000004007146014202D0EFF3098001D1EFF3ED
:101410000880714601B5FFF7DBFE01BD38B5044613
:101420000D4605281AD8DFE800F00319191315171F
:101430000D4801F0DAFB01F035F8AA6901460B48C6
:1014400001F0D3FB29462046BDE8384000F018B82B
:101450000748EEE70748ECE70748EAE70146074890
:1014600001F0C3FBE7E700BF9C3C00003A3D0000F1
:10147000BC3C0000E23C0000FC3C0000173D0000CA
:10148000052810B50CD001F013F860B101F010F888
:101490000C490D4B002808BF19460C4801F0A5FB6C
:1014A000FFF7A4FFFCE701F013F80028EED1084C89
:1014B0000848A16801F099FBA068BDE8104000F061
:1014C0000BB800BF763D00007A3D00008B3D000068
:1014D0001C010020AB3D000038B505464FF020034D
:1014E000EFF3118483F31188BFF36F8F01F0D5FD03
:1014F0000A4B9B68AB420BD1094B5A68C2F30802F6
:1015000012B92046FFF7DEFC5A6842F080525A605A
:101510002046BDE8384001F067BD00BF1C01002037
:1015200000ED00E001B572B60B4A106A00281EBF3C
:101530000021116201F026FD62B6EFF30580A0F1F3
:1015400010004FEAC0000549014409C99847BDE8A9
:1015500001400348004700001C01002074310000D6
:10156000910E000001F0C2FB00F004F830BFFFF75D
:10157000FDBF00BF08B50E4B83F30988EFF314835A
:1015800043F0020383F31488BFF36F8F094B0A4AB9
:1015900023F07F039360BFF34F8FBFF36F8F00F093
:1015A00013FD00F01BFDFFF781FC00F049FD00BFBB
:1015B000A80E00200000000000ED00E010B50E4B6A
:1015C00088B002930D4B0E4C03930E4B08A8049366
:1015D00002AB40F81C3D0C4A2346012100F044F9BF
:1015E00000230793094B0121E41A05A805930694EB
:1015F00000F044F908B010BD000000200000000019
:101600000000012006000100000000200000002072
:1016100010B50B680C7A23F01F0304F01F021A4365
:10162000CB68640923F01F03044943F0010343EA34
:1016300044038860CA600B6110BD00BF90ED00E0FC
:1016400030B585B09DF808200D890B684C68498934
:1016500065F3040261F3471200938DF8082023F02C
:101660001F03621E134423F01F030393084B044619
:101670001B68C3F30723013B984205DC6946FFF76B
:10168000C7FF204605B030BD6FF01504F9E700BF75
:1016900090ED00E02DE9F04F06460F461446002578
:1016A000DFF8488185B0BD420BDA56F82530D3F813
:1016B0000490B9F1000F3CD0B9F11F0F05D86FF0BD
:1016C0001504204605B0BDE8F08F19F01F0FF6D1C4
:1016D000D3F800A01AF01F0FF1D1504601F097F88F
:1016E000834609EB0A00013801F091F88345E6D101
:1016F0001BF1160FE3D0631E5B45E0DBC8F808B0B2
:10170000D8F80C00C8F808B0D8F8103056F82510F2
:1017100020F01F0043F01F09D1E900321A4498421B
:1017200002F1FF3A1AD1D14505D15FFA8BF0FFF7EC
:1017300087FF0135B7E7C8F808B0D8F80C3022F0B9
:101740001F0203F01F031A43C8F80C20E0B2FFF792
:1017500077FF10F1160FB2D0441CEAE7C8F808B0C2
:10176000D8F81020013B23F01F0302F01F0213439F
:10177000D145E0B2C8F81030E9D0FFF761FF10F1B1
:10178000160F9CD0C8F808B0D8F80C209DF8083087
:10179000441C62F304038DF80830D8F810309DF82B
:1017A00008205B0863F3471256F825308DF80820AF
:1017B000D3E900231A44009209F1FF3322F01F02FB
:1017C0001344A3EB0A0323F01F030393D8F800305C
:1017D000E4B2C3F30723013BA342FFF670AF2046F8
:1017E0006946FFF715FF0134A3E700BF90ED00E065
:1017F0000522034B5A60BFF34F8FBFF36F8F7047C3
:1018000090ED00E0BFF35F8F0022014B5A607047FC
:1018100090ED00E0104970B5104D0A682E68C2F3D3
:101820000722964214D8FFF7EDFF00240C4B0B6300
:10183000A64205D10B4B1E70FFF7DAFF002070BDEA
:101840006968204601EB0411FFF7E2FE0134EFE77F
:101850004FF0FF30F3E700BF90ED00E0E833000009
:10186000AAFF44005F01002010B5034C2278FFF767
:1018700011FF207010BD00BF5F0100202DE9F74F60
:10188000894607460026DFF89080DFF890A0214CBB
:101890004E4519DAD7F804B0BBF1000F36D03B68DB
:1018A0001846019300F0B3FF019B05460BEB0300C4
:1018B000013800F0ACFF1423854203FB06F306D089
:1018C0006FF0150248F8032003B0BDE8F08F15F162
:1018D000160F48F80350F7D09AF80020AA42F3DD1B
:1018E000A5604344A560E068197B60F304011973A7
:1018F0002169187B490861F347101873E26822F0E8
:101900001F025A60226922F01F021A6101360C3749
:10191000BEE700BF90ED00E0100000205F01002056
:1019200070B50E4B0E461C780022234605460C4827
:101930000168C1F307218B420BDB0A4B191D1868A4
:10194000FFF766FE224631462846BDE87040FFF7A5
:10195000A1BE836002610133EAE700BF5F0100209E
:1019600090ED00E010000020014B1860704700BFB0
:10197000B00E0020074B03EB8000D0F8003223F4B8
:101980004033C0F80032D0F8003243EA0141C0F8D9
:101990000012704700258450F8B5036801F01F0459
:1019A0009B680D461B79494944EA43140023D1F84A
:1019B00004238668D2B203F5A27051F82000C0F368
:1019C0000420844267D122FA03F0C00763D59A004D
:1019D00002F1A04202F55042D2F8100520F00100B9
:1019E000C2F81005012202FA03F3C1F808332046B9
:1019F0000021FFF7BFFFB068E84010F0010049D0B8
:101A0000F068E84010F0010044D07069E84010F040
:101A100001024CD0B369EB40DB0740D4336923FAB1
:101A200005F2F36923FA05F505F0010502F001035B
:101A3000AB420CBF022501250021244E01F5A27303
:101A400056F8230010F003002BD18B0003F1A043C4
:101A500003F55047D7F81025240222F4473222F428
:101A60004072C7F81025D7F8102504F4F85444EA5A
:101A7000054503F551431543C7F810551860D7F8CD
:101A8000103543F00103C7F81035012303FA01F1C3
:101A9000C6F80413F8BD0133082B8CD1A7E7032542
:101AA000CAE701310829C9D16FF01200F2E7F169E4
:101AB000336920464B4023FA05F515F0010F0CBFA2
:101AC00003210221FFF756FF1046E3E700D0005044
:101AD00008B5094B1A786AB901210D201970052142
:101AE000FFF73CFC0D20FFF715FC4FF00042034BC5
:101AF000C3F80423002008BD6001002000D000507E
:101B00002DE9F74F8046856803F47040B0F5804FAB
:101B10001E4649D02CDCB0F5805F3DD0B0F5405F6B
:101B20003ED060BB06F44077B7F5807F3ED0A7F586
:101B3000007463426341012919BFD4B2A1464FF03A
:101B40001F0900244FF0010B06F0010C4FEA4C076F
:101B500047EA0C0747EA0020DFF8C8A040EA8307FD
:101B600006F00203A14523D2002003B0BDE8F08FA8
:101B7000B0F5E04F16D005DCB0F5A04F0ED06FF0F9
:101B80001500F2E7B0F5404F04D0B0F5504FF6D154
:101B90000720C7E70620C5E70120C3E70320C1E708
:101BA0000420BFE70520BDE70220BBE70323C2E70F
:101BB000D8F800209268117904F01F0242EA41121D
:101BC00080324AF82270A9680BFA04F2002B25D063
:101BD0001143A9606969B0064CBF11439143696123
:101BE000A96970064CBF11439143A9612969700727
:101BF0004CBF114391432961E96930064CBF0A4348
:101C000021EA0202EA61214640460193FFF7C4FE41
:101C10000028AAD10134E4B2019BA3E721EA020122
:101C2000D7E700BF002584502DE9F843454E3568BD
:101C3000012D5BD12F464FF00009434A936812688B
:101C4000DC69D2F80880D3E902120A40D3E9051012
:101C5000014322EA0102D8F800101B6909695C40BF
:101C60004C4022EA040482BB3260002301279C46D8
:101C7000364ED6F8042307FA03F1114211D003F1CE
:101C8000A05202F5515292001168012909D103F5C1
:101C9000A27056F82000C2F800C0C0F304208140B2
:101CA0000C430133082BE4D114B3274FBB681968E8
:101CB000F1B10E688B681C4203D04B68224638464F
:101CC0009847AEB131463668F4E73A420AD098F800
:101CD000043009F01F00002140EA4310FFF74AFEDC
:101CE00022EA070209F101097F00BCE70024BCE7F2
:101CF000012D0DD10026144B9C681B689F68D4E908
:101D000002321A40D4E905310B4322EA03020AB930
:101D1000BDE8F883154212D0E169236997F804C041
:101D20004B40F34013F0010F06F01F000CBF0321DE
:101D3000022140EA4C10FFF71DFE22EA050201369F
:101D40006D00E4E77CD10050280F002000D0005047
:101D500070B54B79012B23D18B79032B20D1CC7912
:101D60002CB1012C1CD103689B681B79C3B10A7983
:101D700012B1022A14D10E2247F6122603689B687C
:101D80001D680B68B3426BD027D8B3F5965F61D05E
:101D900012D8B3F5167F4DD005D8B3F5967F74D021
:101DA0006FF0220052E0B3F5966F50D0B3F5166F86
:101DB000F6D14FF41D233FE0B3F5615F4CD004D85A
:101DC000B3F5165FECD1324B36E0B3F5964F45D004
:101DD000B3F5E14FE4D12F4B2EE0B3F5E13F48D00E
:101DE00012D84DF6C026B3423DD005D8B3F5164FF4
:101DF000D6D14FF41D031FE0B3F5614F36D0B3F5D4
:101E0000963FCDD1244B17E0B3F5E12F37D008D85A
:101E1000B3F5613F30D0214EB342C1D14FF0806362
:101E20000AE0B3F5612F2DD01D4EB342B8D14FF06B
:101E3000805301E04FF41C33C5F8243583682243F6
:101E400003C9C5F86C2583E80300002070BD4FF47A
:101E50009E23F1E7134BEFE7134BEDE7134BEBE753
:101E60004FF40003E8E74FF46503E5E74FF46B0335
:101E7000E2E74FF0EB73DFE74FF06C73DCE74FF016
:101E8000E863D9E74FF07063D6E74FF4A033D3E7A8
:101E90000050270000C0750000903A0190D0030068
:101EA00040420F0000B0130000F03A0000A04E00C6
:101EB000026870B59268184B14684FF0005285683C
:101EC00003219A601D260022C3F87412C3F8702201
:101ED000C4F80C651C26C4F814654FF000669E60BB
:101EE000C3F86C12C3F868221B23C4F808351A2300
:101EF0002946C4F81035FFF72BFF58B90823C4F85A
:101F000000351D440123C4F81001C4F83455C4F849
:101F10003835236070BD00BF0025845070B50026A1
:101F2000084B53F82040013053F82050A54200D808
:101F300070BD236820465B68984700B166600C342A
:101F4000F4E700BFF8350000104B70B505461E469B
:101F50000F4C9C4204D10E4CB44209D1002412E033
:101F600062681AB122681268AA420CD00C34F0E7F9
:101F700063680BB90C34EFE723682846196800F052
:101F8000C8FE0028F6D1204670BD00BF340F0020E7
:101F9000C80E002008B50B4D4FF02002EFF311835F
:101FA00082F31188BFF36F8F01F0B4F8012104466A
:101FB0000228D8BF084601F0BDF82C62FFF716FAD8
:101FC000EAE700BF1C0100200248034A0021121A60
:101FD00000F0D9BE000000206401002008B50648CA
:101FE000064A0749121A00F0A1FEBDE80840054A5A
:101FF0000549064800F09ABEA80E0020480F0020B0
:10200000103E000000000000103E00000000002014
:1020100008B50220FFF782FF074800F0E6FD032025
:10202000FFF77CFF00F09AFA00F0EAFB034A137B0B
:1020300023F00103137308BDD73D0000B00000205A
:1020400080B5414BA2B083F308880024E0223F4BC7
:10205000012783F82220DC771C765C769C76DC7680
:102060005A6A3B4E42F4E0225A625A6A394D42F4AF
:1020700000225A629C63DA6892B242F0BF6242F474
:102080000832DA60FFF73EF9FFF7AAF907AB2146FD
:102090006C22184600F077FEB06020468DF829705B
:1020A000FFF73CFF3846FFF739FF00F0EFF92A4B06
:1020B00075624FF48062CDE90473CDE90244CDE945
:1020C0000044264B2649284600F02EFA6B7B344606
:1020D00023F0040213F01B0F6A7304D1AB6913B928
:1020E000284600F001F91F4B012205930F23CDE98B
:1020F000033200231C4E4FF4A0721C493046CDE938
:10210000013300931A4B00F00FFA737BE66023F063
:1021100004037373174BC4E90633FFF74FFA0D48F6
:10212000A56000F0EEFD0D4B134A184682F30988B6
:1021300063B64FF0000181F31188BFF36F8F002168
:102140000022002300F0DBFBA80E002000ED00E0E1
:102150001C010020B0000020043E000011200000FF
:1021600068010020093E00004400002068050020AE
:10217000951F00003401002068050020EFF3058062
:102180000D2809D828B1054B586880F40060C0F3C9
:10219000C02080F0010070470120FAE700ED00E068
:1021A00008B5FEF7F9FC054B054A1B6800211844E9
:1021B00010611846BDE8084000F0BCBF5401002083
:1021C0001C010020F8B50D464FF02003EFF31184F9
:1021D00083F31188BFF36F8F4FF400410027002273
:1021E0000B4E0C4BC1FB00671A6130464FF4A02226
:1021F00000233946FDF7A6FF074B1860074B1D600B
:10220000FFF7CEFF84F31188BFF36F8FF8BD00BFD7
:10221000FFFF04001C010020540100205001002099
:102220004FF02003EFF3118183F31188BFF36F8F19
:10223000044B9A68D37B013BD37381F31188BFF3BE
:102240006F8F70471C010020094B03F12802824266
:1022500005D19B688B4202D14B7BDB0607D1D1E9CC
:1022600000231A600A6853600023C1E900337047F5
:102270001C01002038B50D4C024604F1280000F086
:10228000CCFE054600B9E568A3684AB95A7BD20678
:1022900006D1AA6922B9DA897F2A01D9636238BDD9
:1022A0009D4201D0FFF77CFF6562F8E71C0100202A
:1022B00010B54FF02003EFF3118483F31188BFF3BF
:1022C0006F8F084B01209A68D37B0133D373FFF7DC
:1022D000D1FF84F31188BFF36F8FBDE8104000F089
:1022E00092BE00BF1C010020F8B54FF02003EFF3B1
:1022F000118483F31188BFF36F8F164A114651F88A
:10230000283F8B420CD05BB1D66A90F90E5093F9FE
:102310000E70AF420BDCB34202D01B68002BF6D12B
:10232000D36A01604360D36A1860D06205E05A68DE
:10233000C0E900325A6810605860437B43F04003A4
:1023400043730020FFF796FF84F31188BFF36F8F6C
:10235000F8BD00BF1C010020F8B504464FF0200373
:10236000EFF3118683F31188BFF36F8F194F014686
:1023700007F128052846FFF767FFBB6A3A46AB42DC
:102380000CD05BB1F86A94F90E1093F90E708F427D
:102390000BDC834202D01B68002BF6D1D36A256088
:1023A0006360D36A1C60D46205E05968C4E90031F7
:1023B00059680C605C60637B906843F04003637312
:1023C000031B58425841FFF755FF86F31188BFF3AE
:1023D0006F8FF8BD1C0100201449154A10B58B6899
:1023E0001468A34203D1BDE81040FFF7D9BE002412
:1023F0001460104A1268BAB1DA897F2A14D80E4ADA
:1024000093F90E40126894420EDB0C4A1268934214
:102410000AD09A6942B90A69824203DC1846FFF77A
:102420009BFFE0E7121A0A6110BD00BF1C010020EB
:102430004C01002054010020500100201036000003
:1024400038B504464FF02003EFF3118583F311886C
:10245000BFF36F8F437B5A0607D501460948FFF744
:10246000F3FE637B23F040036373074B9868031B01
:1024700058425841FFF7FEFE85F31188BFF36F8F76
:1024800038BD00BF440100201C0100200021044B86
:10249000084603F12802C3E90A22FFF793BE00BFF2
:1024A0001C010020014B9868704700BF1C010020F0
:1024B000EFF305800D2807D838B1044B586880F435
:1024C0000060C0F3C02070470120704700ED00E0BD
:1024D000024B9B68187B00F0010070471C01002034
:1024E00010B502464FF02003EFF3118483F31188F7
:1024F000BFF36F8F437B590704D484F31188BFF374
:102500006F8F10BD23F00403437300F0BDFD10B1C5
:102510001046FFF7E9FE2146BDE81040014800F0F3
:1025200055BD00BF6101002030B587B00E9D044647
:1025300004950D9D03950C9D02950B9D01950A9D9B
:102540000095FEF723FF044B9B6813B9236607B081
:1025500030BD1B6EFAE700BF1C0100202DE9F04FD3
:10256000284E294DB04687B0B54205F130040FD34F
:10257000FFF756FE4FF400490027234C234EDFF8A7
:1025800090A0444521D307B0BDE8F04FFFF790BEBF
:1025900054F8043C059354F8103C049354F8143C4C
:1025A000039354F8183C029354F81C3C019354F8DC
:1025B000203C009354E90A2354E90C01FFF7B4FFCF
:1025C00054F8303CDD642546CEE7616A4B1C04D0EC
:1025D000256821B92846FFF783FF3034D1E7B34699
:1025E000BC46C9FB01BC4FF4A022002358466146FB
:1025F000FDF7A8FD5146421C05F1180000F052F805
:10260000EBE700BF340F0020340F0020FFFF040071
:1026100027300000034B1B680BB9FEF7BDBA002042
:10262000704700BF58010020036840B1084A526853
:10263000904204D01BB19A6881680A449A6042684B
:10264000136003685A600023C0E90033704700BF7D
:10265000C00E002038B5104B1B78002B0F4B18BF55
:102660004FF0FF301C6808BF6FF000409C420AD05A
:102670004CB1A568FFF7CEFF281A00280ADBA46832
:10268000FFF7C8FF201A064B1B6913B19842A8BF79
:10269000184638BD0020F6E761010020C00E00207A
:1026A0001C01002070B504461646C1604FF020039F
:1026B000EFF3118583F31188BFF36F8FFFF7AAFF44
:1026C000012EACBF80190130174BA0601A689A42E6
:1026D00001D05E6832B95A68236062605A6814603B
:1026E0005C600BE09068A168884216DD411A916039
:1026F0005168C4E9002151680C6054601A689A421C
:1027000006D0944204D1FFF7A5FF0021FEF70AFA94
:1027100085F31188BFF36F8F70BD091A9642A160CF
:10272000D9D01268D6E700BFC00E00202DE9F04BCB
:102730000446FFF751FE4FF02003EFF3118583F3BA
:102740001188BFF36F8F214F214EB846DFF8849078
:102750003460D9F8004032684C45D7E900BC05D058
:1027600024B1A368934214DD9B1AA36000241BEBE1
:1027700002004CEBE271C8E900013460FFF76AFF28
:102780002146FEF7CFF985F31188BFF36F8FBDE8BF
:10279000F08B1BEB03004CEBE371D31A3360002387
:1027A000C7E90001A3602046FFF73EFF85F31188CB
:1027B000BFF36F8FE36898474FF02003EFF3118565
:1027C00083F31188BFF36F8FC3E700BF00000020C1
:1027D00058010020C00E002038B5074C074DAC4210
:1027E00001D3002038BD04F114032046C4E90533A9
:1027F00000F03AF81C34F2E7340F0020340F0020C8
:1028000008B5FEF75FFABDE80840FEF711BA40E8E8
:1028100000F313F4803FD8B208BF6FF01500704783
:1028200070B50C254D43C66890F90B0074198842A9
:10283000A8BF21464FF0200492FBF4F4B8BF7159B1
:1028400002F01F0001EB8401196070BD07B501ABF8
:10285000FFF7E6FF0123019A03FA00F01368034330
:10286000136003B05DF804FB2DE9F8430446FF2232
:1028700000214FF00C0E4368058900685D4394F811
:102880000AC02844E2728C4505DC00252389AB424E
:1028900022DCBDE8F883B5FBF3F20EFB01F7D4F8B8
:1028A0000C801F2A08EB0706C8BF1F324FEA9303AC
:1028B00006F10409C8BF520903F10303C6E90199EF
:1028C00023F00303D4BFE17248F8070001F10101CE
:1028D000C8BF00EB8200D6E76268E3686A432068FD
:1028E0001E1D811886509A6820464A609A681160B9
:1028F00099602A460021FFF7A9FF0135C6E708B510
:102900000446084611461A46A047FFF7CBFDFEF7DE
:10291000E3FD0020704770B50D4604464520A047F2
:1029200029465220A04729462346BDE87040522040
:1029300018472DE9F04F4FF0000A06460F464FF0BA
:10294000FF39D04689B01C46531E0393002505E08D
:102950006DB9252800F03D813946B047039B13F837
:10296000010F03930028F3D109B0BDE8F08F64286C
:1029700062D019D839280AD8312851D22D283DD013
:1029800030283ED0252808D13946B047DEE7582800
:1029900000F0A880632800F0168139462520B04752
:1029A000039B39461878F0E7702800F0918006D82C
:1029B000692841D06C283CD06828CFD0EDE7752835
:1029C0006DD017D87328E8D1256804F1040B2B4685
:1029D0001C4614F8010B002840F0EC80B8F1030FFE
:1029E00040F000815C1BA9EB0404002C00F3E6809E
:1029F0005C46ABE7782875D07A28DEE74FF003080D
:102A0000ACE7B9F1000F0EDAB8F1000F00F0E78083
:102A1000A0F13009B8F1000F08BF4FF002089DE7A0
:102A2000B9F1000FF4DB0A2303FB0909A9F130090E
:102A3000F0E70AF1010A91E7BAF1000F12D1256817
:102A40000434002D05DA39462D20B0476D4209F1D6
:102A5000FF3943462A46CDF8009039463046FDF707
:102A6000C7FD73E7BAF1010FE9D04FF0000C4FF04A
:102A7000FF3B073424F0070303F10804D3E90023E4
:102A800012F1004043F100018C4508BF834504D298
:102A900039463046FFF73FFF58E71546D1E7BAF110
:102AA000000F05D122680434CDF800904346D4E7E6
:102AB000BAF1010FF6D0073424F0070303F108043C
:102AC000D3E90023002B08BFB2F1004FECD3DFE7BE
:102AD00039463020B04739467820B0474FF00809D2
:102AE0004FF00108BAF1010F27DC23680434079383
:102AF0000023049310220023934602930693079B1E
:102B00000BF1FF3B4FEA8B00C0F1200CA0F120013C
:102B100023FA00F0049B03FA0CFC40EA0C0023FAB1
:102B200001F1084310F00F0013D1069B13B9BBF15C
:102B3000000F2ED14FF0300C11E0073424F00703C2
:102B40001A6803F108045B6807920493D2E7059AB8
:102B5000D5E709288CBF4FF0570C4FF0300C3946A1
:102B600060440592B047029B069501330293BBF186
:102B7000000FECD1B8F1030F7FF4E8AE029BC3EB7A
:102B80004905002D7FF7E2AE39462020B047013DD0
:102B9000F7E7531E91450593E9DBB8F1010F03D127
:102BA00039463020B047E2E7B8F1020FDFD13946AD
:102BB0002020F7E73946B047234609E73946202069
:102BC000B047013C11E72068251D3946B0472C4627
:102BD000BCE6AA46A8464FF0FF390125BEE64FF0F5
:102BE0000108BBE65C460546B8E60FB407B504A984
:102BF00051F8040B0191FDF74FFD03B05DF804EBB4
:102C000004B0704770474FF0502330B5D3F80851E7
:102C1000D3F80423D3F8004102F00102D3F80413DF
:102C2000D3F8040115B10025C3F80851B4B14FF031
:102C300050230024C3F8004122B14FF05023012259
:102C4000C3F8082348B100224FF05023C3F80421F1
:102C50008A0702D50222C3F8082330BD002AF1D02A
:102C60004FF05023D3F80C3403F00113B3F1011FDC
:102C7000E8D1E2E708B5002201210520FEF76EFB4E
:102C80000520FEF747FB002008BD70477047FEF7A0
:102C9000B3BB43B2A9B1002B12DB01215B099B003E
:102CA00003F1604303F56143D3F8802200F01F0075
:102CB00001FA00F022EA0000C3F88002D3F8803263
:102CC0007047002BFCDB01225B099B0003F1604392
:102CD00003F56143D3F8801200F01F0002FA00F000
:102CE0000843E9E701460068FEF798BB202383F319
:102CF0001188704708B5FEF739FCBDE80840FEF7BB
:102D0000C7B807B5002101A8FEF70AFE03B05DF8B9
:102D100004FB0138013910F8013F11F8012F9342EB
:102D200002D1002BF7D11A46981A7047F0B581EA04
:102D30000004A50703460BD0013B0A4491421DD174
:102D4000F0BD002AFCD011F8014B013A03F8014B09
:102D50009C07F6D10C461D1F8F183E1B032E08D86A
:102D60006FF00305940805FB0422A40023442144CA
:102D7000E2E754F8046B45F8046FEEE711F8014BF5
:102D800003F8014FDAE70346F0B5C9B29C070FD14B
:102D90001D4641EA012444EA04449F187E1B032E89
:102DA0000CD8940803EB840413449C4209D1F0BD71
:102DB000002AFCD003F8011B013AE7E745F8044B71
:102DC000ECE704F8011BF0E74FF0FF30704710B557
:102DD00004688068A46801292468C06903D1584048
:102DE0006060002010BD00334FF0010118BF0123C7
:102DF000D04000F001009140834214BFA160E16027
:102E0000EFE770B504688068A468C0692568012987
:102E10006E692C696D6880EA040084EA050404EA9E
:102E2000060480EA04001CBFD04000F001001860D6
:102E3000002070BD836830B5186858B10024814205
:102E400013D108685CB95C681860A14200D1586071
:102E50000020086072B9002030BD2846EFE72060EE
:102E60005868814208BF5C60F2E705680446002D9F
:102E7000F3D13AB11A680A60586819600028EAD19B
:102E80005960E9E76FF01500E6E701292DE9F04107
:102E900018BFD4B2064612BF25461F2500244FF0A6
:102EA00001088768AC4202D90020BDE8F081FB68C8
:102EB00008FA04F223EA0203FB6021463046FEF7DB
:102EC0006BFD0028F1D10134E4B2EBE701292DE9D3
:102ED000F04118BFD4B2064612BF25461F25002474
:102EE0004FF001088768AC4202D90020BDE8F081AC
:102EF000FB6808FA04F21343FB6021463046FEF7F4
:102F00004BFD0028F2D10134E4B2ECE70B468268B5
:102F100092E8030083E803000020704703689B6881
:102F20001B68D3F8240118B1D3F88004C3F88004D7
:102F30007047036882689B681B68D3F8100138B13A
:102F4000127A00200A700122C3F810011A6070473B
:102F50004FF0FF30704782B002AA02F8011D002135
:102F600003689B681B68C3F82011C3F8442501223D
:102F7000C3F848259A60D3F820110029FBD0DA6005
:102F800002B07047FFF782BE437BDB0603BF806958
:102F9000B0FA80F040090020704738B504464FF081
:102FA0002003EFF3118583F31188BFF36F8F014680
:102FB0008068FFF749F9637B23F00203637385F3AD
:102FC0001188BFF36F8F0023A36038BD08B5FFF7EA
:102FD000D5F820B1BDE808400846FDF773BF81F37E
:102FE0001188BFF36F8F08BD08B50246FFF7C6F81A
:102FF00020B1BDE808401046FDF764BF82F3118898
:10300000BFF36F8F08BD4FF02003EFF3118083F300
:103010001188BFF36F8FFFF7E7BF0368984214BFB3
:1030200018460020704750F8103C70B50446A0F1D7
:103030001805CBB14FF02003EFF3118683F311880D
:10304000BFF36F8F294650F8100CFFF7FDF814F806
:103050000B3C23F0020304F80B3C86F31188BFF30A
:103060006F8F002344F8103C14F80B3C284623F0E3
:10307000140304F80B3CFFF787FF20B12846BDE896
:103080007040FFF731B970BD437BDB0603BF806939
:10309000B0FA80F0400900207047036D10B5044677
:1030A00003B198472046FFF7EFFF38B12046FFF7FE
:1030B000C7F9637B43F00803637310BD637B9B0711
:1030C00002D52046FFF769FFA369002BF1D004F178
:1030D000180000F009F8ECE70373002342738173D2
:1030E000C373C0E90633704710B54FF02002EFF309
:1030F000118482F31188BFF36F8F03683BB1FFF730
:1031000093FA002084F31188BFF36F8F10BD6FF026
:103110001500F7E710B54FF02003EFF3118483F3A8
:103120001188BFF36F8FFFF795FA84F31188BFF30F
:103130006F8F10BD70B504460E464FF02003EFF3BD
:10314000118583F31188BFF36F8FFFF783FAA042D5
:1031500005DD012803DD31462046FDF7E3FC85F35C
:103160001188BFF36F8F70BD7047FFFF78D0FF7F6E
:1031700001000000000000008F2C00000000000093
:103180008F2C0000000000008F2C000000000000C9
:103190008F2C0000000000008F2C000000000000B9
:1031A000072C0000000000008F2C00000000000031
:1031B0008F2C0000000000008F2C00000000000099
:1031C0008F2C0000000000008F2C00000000000089
:1031D0008F2C0000000000008F2C00000000000079
:1031E000291C0000000000008F2C000000000000DF
:1031F0008F2C0000000000008F2C00000000000059
:103200008F2C0000000000008F2C00000000000048
:103210008F2C0000000000008F2C00000000000038
:10322000550A0000000000008F2C00000000000084
:103230008F2C0000000000008F2C00000000000018
:103240008F2C0000000000008F2C00000000000008
:103250008F2C0000000000008F2C000000000000F8
:103260008F2C0000000000008F2C000000000000E8
:103270008F2C0000000000008F2C000000000000D8
:103280008F2C0000000000008F2C000000000000C8
:103290008F2C0000000000008F2C000000000000B8
:1032A0008F2C0000000000008F2C000000000000A8
:1032B0008F2C0000000000008F2C00000000000098
:1032C0008F2C0000000000008F2C00000000000088
:1032D0008F2C0000000000008F2C00000000000078
:1032E0008F2C0000000000008F2C00000000000068
:1032F0008F2C0000000000008F2C00000000000058
:103300008F2C0000000000008F2C00000000000047
:103310008F2C0000000000008F2C00000000000037
:103320008F2C0000000000008F2C00000000000027
:103330008F2C0000000000008F2C00000000000017
:103340008F2C0000000000008F2C00000000000007
:103350008F2C0000000000008F2C000000000000F7
:103360008F2C0000000000008F2C000000000000E7
:103370008F2C0000000000008F2C00005036000051
:10338000B906000000000000503600009908000057
:10339000000000002A360000752C0000000000002C
:1033A00034360000752C0000000000003E3600009E
:1033B000A10A0000000000005036000015180000AF
:1033C00000000000D03D0000D11A0000D4350000FC
:1033D00023360000B11E0000F0350000503600001A
:1033E000D92700000000000002000000F0330000B8
:1033F000000000001436000006000000E0FF0F008F
:10340000000000201C36000021000000E0FF00202A
:1034100029090000000000000000000091090000E0
:10342000B5080000000000001701000007010000BF
:10343000070100000701000007010000070100006C
:10344000070100000701000007010000070100005C
:10345000070100000701000007010000070100004C
:10346000070100000701000007010000070100003C
:10347000070100000701000007010000070100002C
:10348000070100000701000007010000070100001C
:10349000070100000701000007010000070100000C
:1034A00007010000070100008A3700004201000008
:1034B00091370000050100009B3700001501000056
:1034C000A437000039010000AD37000009010000F9
:1034D000B83700000A000000C33700002A010000CE
:1034E000CB3700003A010000D33700002C01000068
:1034F000DB3700001C010000E43700001D01000064
:10350000ED3700000A010000F73700000B01000052
:10351000013800000F0100000C380000100100000D
:103520001738000011010000223800000E010000D1
:103530002C380000310100001701000017010000C5
:10354000170100001701000017010000170100001B
:10355000170100001701000007010000070100002B
:10356000070100000701000007010000070100003B
:10357000070100000701000007010000070100002B
:10358000070100000701000007010000070100001B
:10359000070100000701000007010000070100000B
:1035A00007010000070100000701000007010000FB
:1035B0000701000007010000011B0000CF2D0000E3
:1035C000032E0000352E0000CD2E00008B2E0000B3
:1035D000000000000025845000000000332F000090
:1035E000572F00001D2F0000511D00000D2F00005F
:1035F0000080005001000000C80E00201C0F0020B9
:10360000280F0020340F0020340F0020F5FFFFFFAB
:1036100044000020464C4153485F30005352414D16
:103620005F3000554152545F3000434C4F434B5F75
:1036300033324B00434C4F434B5F31364D0073796F
:10364000735F636C6F636B00536563757265090923
:10365000004E6F6E2D53656375726509004E6F6E77
:103660002D53656375726500466C617368207265E1
:1036700067696F6E0909446F6D61696E090950656C
:10368000726D697373696F6E730A0025303275202D
:10369000307825303578203078253035782009008D
:1036A0002563005352414D20726567696F6E0909A9
:1036B000446F6D61696E09095065726D6973736954
:1036C0006F6E730A002530327520307825303578DA
:1036D000203078253035780900506572697068654A
:1036E00072616C0909446F6D61696E0909537461F7
:1036F0007475730A00253032752025730909257306
:103700000009534B49500A00094552524F520A00D2
:10371000094F4B0A0053504D3A204E5320696D61BA
:10372000676520617420307825780A0053504D3A3F
:10373000204E53204D535020617420307825780A54
:103740000053504D3A204E532072657365742076B5
:103750006563746F7220617420307825780A005395
:10376000504D3A207072657061726520746F206AE6
:10377000756D7020746F204E6F6E2D53656375727A
:103780006520696D6167652E0A004E52465F5030B4
:10379000004E52465F434C4F434B004E52465F52E1
:1037A000544331004E52465F4E564D43004E5246F2
:1037B0005F554152544531004E52465F5541525477
:1037C0004532004E52465F495043004E52465F56C6
:1037D0004D43004E52465F465055004E52465F459F
:1037E000475531004E52465F45475532004E5246CE
:1037F0005F5457494D32004E52465F5350494D3346
:10380000004E52465F54494D455230004E52465F7D
:1038100054494D455231004E52465F54494D455230
:1038200032004E52465F5341414443004E52465F80
:103830004750494F544531002A2A2A2A2A20425506
:1038400053204641554C54202A2A2A2A2A0A00206D
:1038500020537461636B696E67206572726F720AC0
:103860000020205072656369736520646174612073
:10387000627573206572726F720A002020424641A1
:103880005220416464726573733A20307825780A57
:10389000002020496D7072656369736520646174EE
:1038A0006120627573206572726F720A0020204970
:1038B0006E737472756374696F6E206275732065C0
:1038C00072726F720A002A2A2A2A2A204D50552025
:1038D0004641554C54202A2A2A2A2A0A00202053DD
:1038E0007461636B696E67206572726F7220286302
:1038F0006F6E746578742061726561206D696768A8
:1039000074206265206E6F742076616C6964290A88
:10391000002020556E737461636B696E6720657259
:10392000726F720A002020446174612041636365F4
:1039300073732056696F6C6174696F6E0A00202082
:103940004D4D46415220416464726573733A203094
:103950007825780A002020496E7374727563746943
:103960006F6E204163636573732056696F6C617479
:10397000696F6E0A002020466C6F6174696E672D56
:10398000706F696E74206C617A79207374617465EC
:1039900020707265736572766174696F6E206572EE
:1039A000726F720A002A2A2A2A2A20534543555246
:1039B00045204641554C54202A2A2A2A2A0A00200A
:1039C00020416464726573733A20307825780A0068
:1039D0002020496E76616C696420656E747279206E
:1039E000706F696E740A002020496E76616C69649C
:1039F00020696E74656772697479207369676E6196
:103A0000747572650A002020496E76616C696420C5
:103A1000657863657074696F6E2072657475726E17
:103A20000A0020204174747269627574696F6E2097
:103A3000756E69742076696F6C6174696F6E0A00C7
:103A40002020496E76616C6964207472616E7369BE
:103A500074696F6E0A0020204C617A79207374615A
:103A6000746520707265736572766174696F6E0A31
:103A70000020204C617A792073746174652065722E
:103A8000726F720A002A2A2A2A2A20555341474572
:103A9000204641554C54202A2A2A2A2A0A0020204E
:103AA0004469766973696F6E206279207A65726FF6
:103AB0000A002020556E616C69676E6564206D6533
:103AC0006D6F7279206163636573730A0020205300
:103AD0007461636B206F766572666C6F7720286304
:103AE0006F6E746578742061726561206E6F7420EA
:103AF00076616C6964290A0020204E6F20636F7024
:103B0000726F636573736F7220696E73747275631D
:103B100074696F6E730A002020496C6C6567616C74
:103B2000206C6F6164206F66204558435F52455496
:103B300055524E20696E746F2050430A0020204970
:103B40006C6C6567616C20757365206F66207468A6
:103B50006520455053520A002020417474656D70F1
:103B60007420746F206578656375746520756E6464
:103B70006566696E656420696E73747275637469D5
:103B80006F6E0A00526573657276656420457863CE
:103B9000657074696F6E20280053707572696F7557
:103BA0007320696E74657272757074202849525161
:103BB000200020205320696E737472756374696FDE
:103BC0006E20616464726573733A202030782578C2
:103BD0000A00524554544F4241534520646F657367
:103BE000206E6F74206D61746368204558435F5286
:103BF000455455524E0A002A2A2A2A2A2048415260
:103C000044204641554C54202A2A2A2A2A0A0020B8
:103C100020427573206661756C74206F6E20766526
:103C200063746F72207461626C6520726561640AEE
:103C30000020204661756C7420657363616C61744B
:103C4000696F6E20287365652062656C6F77290A3D
:103C5000002A2A2A2A2A204465627567206D6F6E21
:103C600069746F7220657863657074696F6E20285F
:103C70006E6F7420696D706C656D656E7465642916
:103C8000202A2A2A2A2A0A002A2A2A2A2A202573AE
:103C900020256429202A2A2A2A2A0A002A2A2A2AAE
:103CA0002A20486172647761726520657863657067
:103CB00074696F6E202A2A2A2A2A0A002A2A2A2AA6
:103CC000204B65726E656C20416C6C6F636174692A
:103CD0006F6E204661696C75726521202A2A2A2A36
:103CE0000A002A2A2A2A2A204B65726E656C204F08
:103CF0004F505321202A2A2A2A2A0A002A2A2A2A0D
:103D00002A204B65726E656C2050616E69632120BC
:103D10002A2A2A2A2A0A002A2A2A2A20556E6B6E63
:103D20006F776E20466174616C204572726F7220ED
:103D3000256421202A2A2A2A0A0043757272656E98
:103D40007420746872656164204944203D202570A8
:103D50000A4661756C74696E6720696E737472755A
:103D60006374696F6E2061646472657373203D20B3
:103D7000307825780A0049535200657373656E7474
:103D800069616C2074687265616400466174616C7D
:103D9000206661756C7420696E2025732120537034
:103DA000696E6E696E672E2E2E0A00466174616C14
:103DB000206661756C7420696E2074687265616438
:103DC000202570212041626F7274696E672E0A008F
:103DD0004750494F5F30002A2A2A2A2A20426F6F13
:103DE00074696E67205A6570687972204F53207627
:103DF000312E31342E39392D6E637331202A2A2A1F
:103E00002A2A0A006D61696E0069646C6500000011
:103E1000132900000090D003C92D000000C201004A
:103E20000001030000000000C00E0020C00E0020B2
:103E30007C3300000000000000000000DC330000C4
:103E40000000000000000000B83300000000000087
:103E50000000000094330000103400000000000057
:103E6000A03300001C34000000000000D03300002C
:103E7000DC350000B40E0020883300000000000094
:103E800000000000AC330000000000000000000053
:103E9000C4330000B835000024000020340F002097
:103EA000340F002000000000000000000F000000A0
:10800000B809022041A000006BD20000CD9E000004
:10801000CD9E0000CD9E0000CD9E0000CD9E0000B4
:10802000CD9E0000CD9E0000CD9E00005D9A000018
:10803000CD9E0000CD9E0000059A0000FDD10000FD
:1080400001A0000001A0000001A0000001A00000AC
:1080500001A0000001A0000001A0000001A000009C
:1080600001A0000001A0000001A0000001A000008C
:1080700001A0000001A0000001A0000001A000007C
:1080800001A0000001A0000001A0000001A000006C
:1080900001A0000001A0000001A0000001A000005C
:1080A00001A0000001A0000001A0000001A000004C
:1080B00001A0000001A0000001A0000001A000003C
:1080C00001A0000001A0000001A0000001A000002C
:1080D00001A0000001A0000001A0000001A000001C
:1080E00001A0000001A0000001A0000001A000000C
:1080F00001A0000001A0000001A0000001A00000FC
:1081000001A0000001A0000001A0000001A00000EB
:1081100001A0000001A0000001A0000001A00000DB
:1081200001A0000001A0000001A0000001A00000CB
:1081300001A0000001A0000001A0000001A00000BB
:1081400001A000007BB972B90029BEBF00204FF02A
:10815000004106E008BF00281CBF6FF000414FF04F
:10816000FF3000F0C7B9ADF1080C6DE904CE00296D
:1081700009DB002B1ADB00F04DF8DDF804E0DDE947
:10818000022304B07047404261EB4101002B1BDB2E
:1081900000F040F8DDF804E0DDE9022304B04042DD
:1081A00061EB4101524263EB43037047524263EB80
:1081B000430300F02FF8DDF804E0DDE9022304B00A
:1081C000404261EB41017047524263EB430300F0D0
:1081D00021F8DDF804E0DDE9022304B0524263EB4C
:1081E0004303704753B94AB9002908BF00281CBF90
:1081F0004FF0FF314FF0FF3000F07CB9ADF1080CCB
:108200006DE904CE00F006F8DDF804E0DDE90223B4
:1082100004B070472DE9F0478C46089D04468A4615
:10822000002B4AD18A42174662D9B2FA82F64EB181
:10823000C6F1200E01FA06F3B740B44020FA0EFE54
:108240004EEA030A4FEA1748230C1FFA87F9BAFBD4
:10825000F8FE08FB1EAA0EFB09F243EA0A439A4203
:108260000BD9FB180EF1FF312CBF012000209A42E0
:1082700002D9002800F02A818E469A1AA3B2B2FBD6
:10828000F8F008FB102200FB09F943EA0244A1457B
:1082900007D93C1900F1FF3302D2A14500F2108149
:1082A0001846A4EB090440EA0E4000211DB1F44039
:1082B0000023C5E90043BDE8F0878B4208D9002DB3
:1082C00000F0F2800021C5E9000C0846BDE8F08707
:1082D000B3FA83F100294ED16345C0F0E8808242B1
:1082E00040F2E5800846002DE5D0C5E9004AE2E706
:1082F00002B9FFDEB2FA82F6002E40F099808B1AA6
:108300004FEA124E1FFA82F801214FEA144CB3FBD8
:10831000FEF20EFB123008FB02F94CEA004CE1457C
:1083200008D917EB0C0C02F1FF3302D2E14500F241
:10833000CA801A46ACEB090CA3B2BCFBFEF00EFBE4
:1083400010CC08FB00F843EA0C44A0450ED93C19B8
:1083500000F1FF332CBF4FF0010C4FF0000CA04593
:1083600003D9BCF1000F00F0A8801846A4EB080464
:1083700040EA02409AE7C1F120048B4002FA01FE74
:108380000CFA01F6E24020FA04F72CFA04FC00FA99
:1083900001F813433E431F0C320C1FFA83F9BCFB58
:1083A000F7F007FB10CC00FB09FA42EA0C4CE2455F
:1083B00008D913EB0C0C00F1FF3202D2E24500F2B7
:1083C00089801046ACEB0A0CB6B2BCFBF7FA07FB8F
:1083D0001ACC0AFB09F946EA0C42914506D99A18CB
:1083E0000AF1FF3601D291457AD8B2464AEA0040F6
:1083F000A2EB0902A0FB0E67BA42B446B94602D30B
:1084000007D1B04505D2B6EB0E0C67EB030301387C
:108410009946002D6BD0B8EB0C0362EB090202FA0F
:1084200004F4CB40CA4000211C43C5E9004242E7A6
:10843000B740C6F1200201FA06F3B44021FA02FC6B
:108440004FEA174E20FA02F21FFA87F8BCFBFEF142
:108450001A430EFB11CC01FB08F0130C43EA0C4C41
:10846000604507D917EB0C0C01F1FF3301D26045D1
:1084700033D81946ACEB000C92B2BCFBFEF00EFBFD
:1084800010CC00FB08F342EA0C4C634507D917EB0C
:108490000C0C00F1FF3201D2634525D81046ACEB3D
:1084A000030340EA014130E72946284603E7841ADE
:1084B0006CEB030301209A4615E702383C4455E76C
:1084C00002383C44EDE6023ABC4433E7AEF1020E1A
:1084D0003B44D2E602389C4474E70239BC44C9E705
:1084E000AAF1020A1A4481E70238BC44D7E72946B8
:1084F000E1E600BF704700BF10B58AB01C4803F02A
:10850000F9F900282ED0044603681A680146194874
:1085100004F068FB63689B682121204698476368E4
:10852000DB6804AA0D21204698476368DB6806AA29
:108530000E21204698476368DB6808AA1021204670
:108540009847099B0293089B0193079B0093069B06
:10855000059A0499084804F045FB4FF47A7003F03B
:1085600033FED7E7054804F03DFB0AB010BD00BF5D
:1085700060E3000088E3000098E3000068E3000087
:1085800008B50B6801330B60014B1B68984708BDA9
:10859000981702202DE9F84F81468A4615469B46DA
:1085A0000A9B002B2FDD01270A264FF00008214CE3
:1085B00012E0601CB5FBF0F051463030C84701377F
:1085C0004FF00108013E631CB5FBF3F203FB1255AB
:1085D000194BA3FB0434E408082C17D9B8F1000F99
:1085E000E7D1AC42E5D30A9B9E42EBDCBBF1020F24
:1085F000E8D8BBF1010F04D020205146C84701370D
:10860000E0E73020F9E701230A93CCE7514605F172
:108610003000C847BBF1030F01D0BDE8F88F0A9BBB
:10862000DF1B03E051462020C84727467C1E002F51
:10863000F8DCF2E7FFC99A3BCDCCCCCC014B1860FB
:10864000704700BF9817022010B582B002AC00231B
:1086500044F8043D0B4602462146024804F05EF908
:1086600002B010BD8185000010B54FF02003EFF37C
:10867000118483F31188BFF36F8F04F0C2FA074BA4
:108680000122C3F84025064B4FF0FF329A62DA62AE
:1086900084F31188BFF36F8F002010BD009003405A
:1086A00000ED00E0014B024A1A6070479C1702205F
:1086B0000090D003034610F0020F04D1044813F0D9
:1086C000040F02D170470348F9E70348FAE700BFF7
:1086D0000100AD0B0100AE0B0200AE0BF0B587B090
:1086E00004460D46D0F824318BB10023C0F8243164
:1086F000D0F804315BB98B68C0F8083302238B6073
:108700008B68C0F8043301230362436140E0D4F86E
:108710000431002B44D00023C4F8043101AE05F12C
:108720000C070FCF0FC63B68336095F82E3053B15E
:108730002B7B012B2ED0D4F84C250292022B2CD06F
:10874000D4F84C3503930023C4F86031C4F85C318D
:1087500095F8303013B195F82E3033B10023C4F8BA
:108760000032AB60284BC4F80833D4F8C434C4F8E2
:10877000C43413F0020F3CD001238DF8003095F87B
:1087800030300BB985F82F302B68696868469847F8
:1087900007B0F0BDD4F83C25CFE7D4F83C35D1E79D
:1087A0000023C4F848312B7B8BB901AE05F10C07CF
:1087B0000FCF0FC63B68336095F83030002BD4D113
:1087C000C4F80032AB60104BC4F80833CDE74FF467
:1087D0000073C4F8003240F20223AB6003F1CE73A1
:1087E000C4F80833AB68C4F804330123A3602362E0
:1087F000CEE713F0040F03D002238DF80030BEE75C
:1088000000238DF80030BAE702029C01F8B5047924
:108810001E4E342505FB046595F82D50002D33D1EF
:108820003746342606FB04F6BD19BA516B600023A7
:10883000AB6085F8303085F82F304B7B85F83230CF
:108840000B68134D803340F20C6645F823604B688B
:10885000803345F8236003680E684D68C3F80865E7
:10886000C3F80C558968C3F8241522B1006840F399
:10887000073001F0BBFA054B342202FB043401231C
:1088800084F82D300348F8BD0348FCE708000220B7
:10889000002584400000AD0B0500AD0B0379026894
:1088A0000621C2F80015044A342101FB03230222E9
:1088B00083F82D20704700BF08000220037902686A
:1088C0000A49342000FB0313002098600849C2F8CD
:1088D0000813D2F8001221F4BC51C2F80012C2F8F9
:1088E0000005012283F82D20704700BF08000220F8
:1088F00002029C012DE9F8430379DFF84482342514
:1089000005FB03F508EB05070468CB6803F060433B
:10891000B3F1005F40F001810E469446824BC4F8EB
:10892000083397F82F308BBB12F0140F0CBF0123C4
:10893000002387F82F3007F10C0E8946B9E80F00A5
:10894000AEE80F00D9F80030CEF80030CCF30013B9
:1089500087F830307378C4F888350023C4F80431C0
:10896000C4F824311CF0010F15D00123C4F8503590
:108970001CF0020F13D00123C4F840353378032BC9
:1089800000F2AB80DFE803F05E953E0FBB68C4F8F1
:1089900004336648C2E00023C4F85035E8E70023FA
:1089A000C4F84035EAE7336903F06043B3F1005F90
:1089B00040F0B6804FF48073C4F80032F2687368F8
:1089C000C4F84425C4F848350023C4F85031C4F82D
:1089D0006031C4F8483101232362A360D4F85031D8
:1089E000002BFBD00023C4F850313269B368C4F8BF
:1089F0004425C4F848354E4BBB604FF482720823BF
:108A00004C4837E0F2687368C4F84425C4F8483528
:108A1000336903F06042B2F1005F40F08380B268D6
:108A2000C4F83435C4F838254FF48453C4F8003200
:108A300040F20223BB60012323624FF482720823B9
:108A40003C4817E0F2687368C4F84425C4F8483518
:108A50001CF0200F23D04FF48073C4F80032344B45
:108A6000BB600023C4F848314FF4A4720123236291
:108A7000082330481CF0080F04D13178032901D0B5
:108A80000121E15058F8053063B31CF0040F02D007
:108A90004FF40073BB60BB68C4F804333EE04FF48E
:108AA0000073C4F8003240F20223BB604FF48272BC
:108AB000DCE7F2687368C4F83425C4F838354FF43D
:108AC0008053C4F8003240F20223BB6001232362CA
:108AD0004FF4827200231748CCE74FF482720823C8
:108AE0001548C7E7A35863B9D4F82431002BF9D04F
:108AF0000023C4F824310123236263614FF482729E
:108B0000F0E7D4F8C434C4F8C434002287F82F2026
:108B100023B11846FFF7CEFD00E00848BDE8F88312
:108B20000648FBE70548F9E702029C010B00AD0B84
:108B3000000204000000AD0B0400AD0B0A00AD0BF9
:108B40000800022008B502490248FFF7C7FD08BD2A
:108B50000800022000B0004008B5054B186018B1AD
:108B6000044B1B68092B00DC08BD03F08FFBFBE7FF
:108B7000D80002203C000220F8B50746E9B90024DD
:108B800000E001340F4B104A9B1AB4EB231F14DA98
:108B90000D4D05EB04156B685B79002BF1D0394660
:108BA000284604F04DF80028EBD02601064B9B59CF
:108BB0001B68394628469847E3E7384604F0E2F850
:108BC000F8BD00BF50E3000040E3000030B587B0BF
:108BD0000B4D0024059404940E23039302940194F6
:108BE0000094084B4FF440720749284605F06CF991
:108BF0000649284605F067F9204607B030BD00BF9A
:108C00006C0002204DCC0000B802022008E40000F5
:108C100008B500F063FA084803F0FAFF042328229D
:108C20000649074805F073F8064B074A1A604FF4E7
:108C3000004000F023FC08BD48000220F81202208A
:108C400050000220A017022045CC000038B5104B80
:108C50000024D3E8EF5FC3E8E24F002A01D0F8E731
:108C600001340C4B0C4A9B1AB4EB231F0FDA0A4851
:108C700000EB041043685B79002BF1D02301064A16
:108C8000D358DB68002BEBD029469847E8E738BD7E
:108C90004000022050E3000040E3000038B5174BCD
:108CA0001B7803B928B304464FF02003EFF3118576
:108CB00083F31188BFF36F8F114803F0B9FF85F379
:108CC0001188BFF36F8F50B10E4BD3E8EF2F013AED
:108CD000C3E8E12F0029F8D12146FFF74DFF14B971
:108CE000094B1B6833B9064803F0A0FF003018BFDA
:108CF000012038BDFFF7AAFFF5E700BFA802022058
:108D0000480002203C0002204000022070B582B0E2
:108D100005460E46002202A941F8042D234802F020
:108D20001FFF002833D1019C44B10123636000225E
:108D300022814FF0000362F30003237204B1256126
:108D40001CB366811A4B1B689847E060194BD3E847
:108D5000EF2F0132C3E8E12F0029F8D14FF02003B3
:108D6000EFF3118583F31188BFF36F8F214612480B
:108D700003F052FF85F31188BFF36F8F0F4B1B7801
:108D80004BB90C4B1B680A2B09D002B070BD00F028
:108D9000B1F90190C7E70020FFF780FFF5E7084B26
:108DA00018680028F1D003F071FAEEE7DC00022029
:108DB000A01702203C00022048000220A902022045
:108DC000D8000220F0B583B007460D4616460022B3
:108DD00002A941F8042D274802F0C2FE002839D12B
:108DE000019C44B101236360002222814FF0000303
:108DF00062F30003237234B12761637A012262F3C4
:108E00000713637265611CB366811B4B1B6898472F
:108E1000E0601A4BD3E8EF2F0132C3E8E12F0029BD
:108E2000F8D14FF02003EFF3118583F31188BFF3DE
:108E30006F8F2146124803F0EFFE85F31188BFF3D0
:108E40006F8F104B1B784BB90C4B1B680A2B09D04A
:108E500003B0F0BD00F04EF90190C1E70020FFF72C
:108E60001DFFF5E7084B18680028F1D003F00EFA53
:108E7000EEE700BFDC000220A01702203C00022029
:108E800048000220A9020220D80002202DE9F0416A
:108E900082B080460E4615461F46002202A941F8C0
:108EA000042D284802F05CFE00283CD1019C44B10E
:108EB00001236360002222814FF0000362F300036C
:108EC000237244B1C4F81080637A022262F307135C
:108ED00063726661A5611CB367811B4B1B68984771
:108EE000E0601A4BD3E8EF2F0132C3E8E12F0029ED
:108EF000F8D14FF02003EFF3118583F31188BFF30E
:108F00006F8F2146124803F087FE85F31188BFF367
:108F10006F8F104B1B7853B90C4B1B680A2B0AD070
:108F200002B0BDE8F08100F0E5F80190BEE7002056
:108F3000FFF7B4FEF4E7084B18680028F0D003F000
:108F4000A5F9EDE7DC000220A01702203C0002207A
:108F500048000220A9020220D8000220044BD3E8D6
:108F6000EF2F0132C3E8E12F0029F8D1704700BF8D
:108F700040000220054B064A9B1AB1EBD30F02D2E8
:108F800052F8310070470020704700BF40E30000F6
:108F900008E30000064BC31A1B110133426813712A
:108FA00043681960426801235371024A1370704785
:108FB00040E30000A802022038B5134BD3E8EF2F9E
:108FC000511CC3E8E01F0028F8D1DAB9002405E0FD
:108FD000032200212846FFF7DDFF01340B4B0C4A2A
:108FE0009B1AB4EB231F0DDA094D05EB04152B7BFF
:108FF000002BF2D02301064AD3585B69002BE7D03F
:109000009847E5E738BD00BF4400022050E3000068
:1090100040E30000124B1B7803B1704710B5FFF717
:10902000CBFF002400E001340E4B0F4A9B1AB4EB37
:10903000231F0CDA0C4800EB041043685B79002B0B
:10904000F1D02301084AD3581B699847EBE7002069
:10905000FFF724FE0028FAD1014B01221A7010BD3F
:10906000A902022050E3000040E30000054B9842B3
:1090700004D37833984203D900207047002070470A
:1090800001207047FC12022000B583B00438019023
:10909000D0E8EF3F5A1EC0E8E12F0029F8D1012B9C
:1090A00002D003B05DF804FB01A9024802F08AFD7A
:1090B000F7E700BF5000022010B582B0019005E034
:1090C0001C6801A9044802F07DFD0194019B002B5E
:1090D000F6D102B010BD00BFDC00022008B520238D
:1090E0001A460249024804F012FE08BD98130220F5
:1090F000DC00022010B582B0002301930120FFF7AD
:10910000CDFD0446FFF72AFF002201A9044802F022
:1091100027FD08B1002CF1D1019802B010BD00BFAD
:10912000DC00022070B582B00190457A037A13F01A
:10913000010F01D12D09D5B9019B1A7A12F0020F46
:1091400017D101A90D4802F03DFD02B070BD0134F8
:10915000AC42F1D22146019803F003FE0646FFF728
:1091600085FF0028F3D03046FFF78EFFEFE700249D
:10917000EEE75869FFF7A0FFE3E700BFDC0002203D
:109180000EB400B582B003AB53F8042B0193014633
:10919000044803F0C3FB002002B05DF804EB03B009
:1091A000704700BF23D10000F0B585B011F0440F27
:1091B00005D01A4B1C6834B9002005B0F0BD184921
:1091C000FFF7DEFFF9E7174B1D68B2FBF5F5B5FBBE
:1091D000F4F1154AA2FB0132D20A4FF4616606FB94
:1091E0001216124BA3FB06735B0904FB11514FF4DB
:1091F0007A7505FB01F1B1FBF4F707FB141105FBD0
:1092000001F1B1FBF4F402940197C3EB0314A10044
:10921000711A00910649FFF7B3FFCEE7F80002206C
:10922000C0E40000FC000220C5B3A29189888888B0
:10923000CCE4000061B108B52AB1064A52F82320F7
:1092400012B9054A00E0044A0449FFF799FF08BD36
:10925000704700BF1CE4000010E4000018E40000A8
:1092600011F0100F0BD108B511F0200F03D10449F4
:10927000FFF786FF08BD0349FFF782FFFAE7704753
:109280005CE4000038E900002DE9F04105460F4696
:10929000164698460699FFF7E3FF002404E01A49B2
:1092A0002846FFF76DFF01344445F8DB002404E055
:1092B00016492846FFF764FF0134072C07DCB44247
:1092C000F6D23A5D12492846FFF75AFFF4E71149F2
:1092D0002846FFF755FF002404E00F492846FFF712
:1092E0004FFF0134072C0DDCB44206D23A5DA2F1E7
:1092F00020035E2BF1D92E22EFE703492846FFF722
:109300003FFFEEE7BDE8F08154E4000038E40000E0
:1093100030E400003CE4000040E40000F8B50446FE
:1093200016461F4649B9002586B10123079A934086
:1093300013F0100F16D10C4E09E00C4B079A53F89E
:1093400022200B49FFF71CFF0546EDE7064E069964
:109350003846FFF70FFE024631462046FFF710FF62
:109360002844F8BD034EF2E748E400008CE4000016
:1093700050E4000044E400002DE9F04186B00646C8
:109380000D4690461F4603F00CFD02460D49284647
:10939000FFF7F6FE002406AA082342F80C3D2346F8
:1093A00004A9304603F0FFFC039A42B100974346FC
:1093B00004A92846FFF768FF039B1C44EBE706B0AF
:1093C000BDE8F08118E40000F0B583B006460C4615
:1093D00000273D4605E0204603F096FE019B1D4414
:1093E000BBB1E36802AA42F8043D2B46A1683046AF
:1093F00003F0D9FC6368019A1A60019B002BEAD044
:10940000A268134413F8017C0A2F14BF0027012718
:10941000E1E70FB903B0F0BD02492046FFF7B0FE07
:10942000F8E700BF88E4000070B582B004684368C4
:109430005D6842F20F738B4228BF0B460C4A052130
:10944000684601F03DFD06462B460B2209492046A1
:1094500003F0B1FC2B4632466946204603F0ABFCD4
:109460002B461B220449204603F0A5FC02B070BD28
:1094700058E400007CE4000060E40000074B012297
:109480001A6004E04008054A13685B001360044B4F
:109490009842F7D8034B1860704700BFFC000220C9
:1094A00040420F00F800022008B5034802F022FAFB
:1094B000024B586008BD00BF00E500000801022013
:1094C00008B5024803F020FE08BD00BF08E5000013
:1094D00008B50248FFF7A8FF08BD00BF08E5000077
:1094E00010B50C46084603F030FC0F222146034815
:1094F00003F02BFE204603F045FC10BD08E50000FC
:1095000010B504460A2805D1064B186843685B6805
:109510000D219847034B186843685B68E1B2984790
:10952000204610BD1401022010B5044C204601F065
:10953000C1FC2046FFF782F810BD00BF0195000076
:1095400008B5044802F0D6F9034B1860FFF7ECFFAA
:10955000002008BD00E50000140102204FF02003A8
:10956000EFF3118183F31188BFF36F8F164B1A78D5
:109570009AB1531EDBB214480370ABB9134B1B787E
:10958000CBB9124B01221A7081F31188BFF36F8F90
:109590000F490A6000201870704781F31188BFF3EB
:1095A0006F8F6FF04400704781F31188BFF36F8FA6
:1095B0006FF00F007047044B1A7081F31188BFF3EE
:1095C0006F8F6FF00A007047AD020220AC020220DC
:1095D000045000404FF02002EFF3118382F3118812
:1095E000BFF36F8F144A127882B183F31188BFF3EF
:1095F0006F8F124AD2F81C3403F0030343F4803314
:10960000D2F81824934314D10020704701220A484D
:10961000027083F31188BFF36F8F084B0020C3F8EB
:109620000401C3F818150221C3F8041308331A60A3
:10963000DFE76FF043007047AB02022000500040AC
:1096400030B4194BD3F80801D3F8042302F0010217
:10965000D3F80011D3F8044304F00204D3F8043122
:1096600018B111480025C0F8085119B10E4800255D
:10967000C0F8005162B139B90B4AD2F80C2402F09B
:109680000112B2F1011F03D1074A0121C2F80813E8
:109690003BB1054B0022C3F8042114B10222C3F8E8
:1096A000082330BC704700BF0050004010B54FF099
:1096B0002003EFF3118483F31188BFF36F8F2E4AD9
:1096C0001378581C10706BB184F31188BFF36F8F3F
:1096D0002A4BD3F80C3403F00113B3F1011F48D126
:1096E000002010BD264A1278B2B9254B01221A700B
:1096F00084F31188BFF36F8F002933D0052000F069
:1097000085FB1E4B0022C3F80021D3F8041301226D
:10971000C3F804231A600BE0174A137084F311880E
:10972000BFF36F8F6FF00A00DBE720BF40BF20BFA1
:10973000124BD3F80031002BF7D0104B0022C3F8A6
:10974000002111F0010F02D10122C3F808230D4BB3
:109750002022C3F88021052000F048FB084B00229E
:109760001A70B5E7054B0022C3F8002101221A60E8
:10977000F4E76FF04300B4E7AD0202200050004070
:10978000AC02022000E100E020F07F40014BC3F872
:109790004005704700500140014BD3F80405704765
:1097A0000050014070B5134B0022C3F840214FF028
:1097B0002003EFF3118683F31188BFF36F8FFFF758
:1097C000EBFF0D4C2568294603F01AFD0B4BA3FB5C
:1097D0000023C01A03EB5000000A40F2471303FBBA
:1097E0000055256086F31188BFF36F8F02F012FFDA
:1097F00070BD00BF005001401801022021F1D4903B
:1098000038B51A4802F076F860B34268126802214F
:109810009047174D0024C5F8084540F24713C5F896
:1098200040354FF48033C5F84433C5F80433114B49
:109830001C60114B4FF40012C3F880212246012115
:10984000152000F0F7FA152000F0D0FA01230B4A9A
:1098500013602B60FFF7A0FF00F24710FFF794FFA3
:10986000204638BD4FF0FF30FBE700BF4CE500005D
:10987000005001404051014000E100E0085001402B
:109880002DE9F041B0F1FF3F38D00138002838DD34
:109890004CF669048442A8BF04464FF02003EFF35E
:1098A000118583F31188BFF36F8FFFF775FF0646AD
:1098B00040F2471707FB04F4134BD3F800804146EE
:1098C00003F09EFC204400F5A373104CA4FB03247A
:1098D0001B1B04EB5304240A07FB04843146204677
:1098E00003F08EFC1F2800D83C442046FFF74CFFB5
:1098F00085F31188BFF36F8FBDE8F0814CF66900E6
:10990000C3E70024C9E700BF1801022021F1D49069
:1099100010B54FF02003EFF3118483F31188BFF3E8
:109920006F8FFFF739FF084B196803F069FC074B8D
:10993000A3FB0023C01A03EB5000000A84F3118834
:10994000BFF36F8F10BD00BF1801022021F1D4902A
:1099500038B54FF02003EFF3118583F31188BFF37F
:109960006F8FFFF719FF054B1C68214603F048FC79
:10997000204485F31188BFF36F8F38BD1801022092
:1099800004488168406A884203D003494FF08052FE
:109990000A6070476802022004ED00E000220AE03D
:1099A00053B2002B0ADB03F1604303F5614320212E
:1099B00083F800130132402AF2DD704702F00F01F4
:1099C000024B0B4420211976F4E700BFFCEC00E0C9
:1099D000094A9368586609490968996608494B68B5
:1099E00043F080534B60002383F31188BFF36F8FE4
:1099F0009368986E704700BF68020220C0EB0000B9
:109A000000ED00E0202080F31188BFF36F8F114933
:109A10008A684FF028001044EFF3098C80E8F01FAB
:109A20000D4F4FF000664A6A8A603E60506E002318
:109A3000536680F3118804B50648806803F01BFC68
:109A4000BDE8044002F1280090E8F01F8CF309887B
:109A5000704700006802022004ED00E01EF0040FD1
:109A60000CBFEFF30880EFF30980816931F8021C25
:109A700011F0FF010229FFD001B503F0ECFB01BD9D
:109A800038B504460D46264803F0ACF8254B9B6AD2
:109A900013F0100F1ED1234B9B6A13F0080F1DD13A
:109AA000204B9B6A13F0020F1CD11E4B9B6A13F0D4
:109AB000010F2BD11B4B9B6A13F0200F2AD1194B9E
:109AC0009A6A9A6A42F0FF029A62204603F09CFB6F
:109AD00020BB38BD144803F085F8DCE7134803F0D9
:109AE00081F8DDE7124803F07DF80E4B596B9B6A55
:109AF00013F0800FD9D00F4803F074F8002DD4D0A4
:109B0000084A936A23F080039362CEE70A4803F081
:109B100069F8CFE7094803F065F8D0E70620D8E7F1
:109B20009CE6000000ED00E0B4E60000E8E600007E
:109B3000FCE6000018E7000030E7000050E70000F6
:109B400038B504460D462A4803F04CF8294B9B6A69
:109B500013F4805F23D1274B9B6A13F4006F22D14B
:109B6000244B9B6A13F4007F21D1224B9B6A13F490
:109B7000806F30D11F4B9B6A13F4807F2FD11D4B18
:109B80009B6A13F4005F2ED11A4A936A43F47F4311
:109B90009362204603F038FB00B1062038BD16481A
:109BA00003F020F8D7E7154803F01CF8D8E714486D
:109BB00003F018F80F4B996B9B6A13F4004FD4D045
:109BC000104803F00FF8002DCFD00A4A936A23F40F
:109BD00000439362C9E70C4803F004F8CAE70B4856
:109BE00003F000F8D0E70A4802F0FCFFCCE700BF22
:109BF00070E5000000ED00E088E50000E8E6000008
:109C00009CE50000B8E50000D0E50000ECE50000B0
:109C100050E7000008B5254802F0E4FF244B9B6A9A
:109C200013F0007F26D1224B9B6A13F0807F25D151
